:020000040800F2
:100000000050002049120008610400086304000841
:100010006504000867040008690400080000000087
:100020000000000000000000000000006B04000859
:100030006D040008000000006F040008710400084F
:100040009112000891120008911200089112000804
:1000500091120008911200089112000891120008F4
:1000600091120008911200089112000891120008E4
:1000700091120008911200089112000891120008D4
:1000800091120008911200089112000891120008C4
:1000900091120008911200089112000891120008B4
:1000A00091120008911200089112000891120008A4
:1000B0009112000891120008911200089112000894
:1000C0009112000891120008911200089112000884
:1000D0009112000891120008911200089112000874
:1000E000911200089112000891120008000000000F
:1000F0000000000000000000000000000000000000
:0C01000000000000000000005FF808F1A3
:10010C0010B5054C237833B9044B13B10448AFF345
:10011C0000800123237010BD1C0000200000000093
:10012C00DC13000808B5034B1BB103490348AFF3BC
:10013C00008008BD0000000020000020DC13000837
:10014C00034613F8012B002AFBD1181A013870470B
:10015C0000B583B000230193009301231A4619467E
:10016C00184600F0B3F84A21054800F0FFF84FF4A8
:10017C000051044800F0DEFEC82000F07FFAF2E7E0
:10018C00F41300080010014072B6FEE708B50848E9
:10019C00084B03604FF4E133436000238360C3607A
:1001AC0003610C2242618361C36100F0ABFF08BDA7
:1001BC00380000200038014000B591B02822002101
:1001CC0006A801F09FF80023019302930393049374
:1001DC000593012206924FF4803307930A92022270
:1001EC000D920E9306A800F073FA70B90F230193C9
:1001FC0002230293002103910491059101A800F0C0
:10020C00A5FC28B911B05DF804FBFFF7BDFFEDE7C5
:10021C00FFF7BAFFF6E700002DE9F04188B00024A3
:10022C000494059406940794254B9A6942F01002A5
:10023C009A619A6902F010020192019A9A6942F04D
:10024C0020029A619A6902F020020292029A9A693B
:10025C0042F004029A619B6903F004030393039B2D
:10026C00DFF8608022464FF40051404600F05CFEFF
:10027C00154E2246E021304600F056FE4FF4005356
:10028C0004930127059706940225079504A9404677
:10029C0000F038FD6023049305970694079504A994
:1002AC00304600F02FFD80230493059506940795A6
:1002BC0004A9304600F026FD08B0BDE8F08100BF6F
:1002CC0000100240001001400008014070B50E46BD
:1002DC0015461C4618B92EB93DB94CB970BDFFF77F
:1002EC009BFFF8E7FFF752FFF6E7FFF765FFF4E730
:1002FC0000F0A0F9F2E7000010B5B2B00446684671
:10030C00FFF71EFF02460021684600F0FBFF204667
:10031C00FFF716FFC8280CD9114B5C682046FFF775
:10032C000FFF0F2382B221460E4800F01AFF32B0A5
:10033C0010BD02462146684600F0F4FF6846FFF700
:10034C00FFFE094B1B882DF800302046FFF7F8FE06
:10035C00421C642392B26946024800F002FFE6E7B1
:10036C000000002038000020101400080FB4F0B575
:10037C00A1B026AD55F8046B0024069460222146EA
:10038C0007A800F0BFFF1F9525461BE00134335D25
:10039C00633B152B15D8DFE803F00B22141414144F
:1003AC0014141414141414141414461414141434AF
:1003BC001F9B1A1D1F921A7820AB2B4403F8682C34
:1003CC0001350134002E3CD0335D002B39D0252B68
:1003DC00DCD020AA2A4402F8683C0135F1E71F9BC7
:1003EC001A1D1F920A2201A9186800F089FF01A9A1
:1003FC0006AB581900F08EFF01A8FFF7A1FE0544CB
:10040C00DFE71F9B1A1D1F92102201A9186800F02C
:10041C0077FF01A906AB581900F07CFF01A8FFF784
:10042C008FFE0544CDE71F9B1A1D1F921F6839468E
:10043C0006AB581900F06EFF3846FFF781FE0544F5
:10044C00BFE706A8FFF758FF284621B0BDE8F040EB
:10045C0004B07047FEE7FEE7FEE7FEE7FEE77047F5
:10046C007047704708B500F0F7F808BD82B00E4B26
:10047C009A6942F001029A619A6902F001020092B3
:10048C00009ADA6942F08052DA61DB6903F080533A
:10049C000193019B054A536823F0E06343F000731A
:1004AC00536002B0704700BF0010024000000140D2
:1004BC0010B58AB000230693079308930993036839
:1004CC00434A934207D0434A93422ED0424A934226
:1004DC0053D00AB010BD414B9A6942F480429A61E4
:1004EC009A6902F480420092009A9A6942F00402DE
:1004FC009A619B6903F004030193019B4FF4007311
:10050C0006930223079303230993354C06A920462F
:10051C0000F0F8FB4FF480630693002307930893D5
:10052C0006A9204600F0EEFBD3E72C4BDA6942F427
:10053C000032DA61DA6902F400320292029A9A69A4
:10054C0042F004029A619B6903F004030393039B3A
:10055C00042306930223079303230993204C06A933
:10056C00204600F0CFFB0823069300230793089343
:10057C0006A9204600F0C6FBABE7184BDA6942F43B
:10058C008022DA61DA6902F480220492049A9A6970
:10059C0042F008029A619B6903F008030593059BDE
:1005AC004FF48063069302230793032309930D4CA6
:1005BC0006A9204600F0A6FB4FF400630693002327
:1005CC000793089306A9204600F09CFB81E700BF27
:1005DC000038014000440040004800400010024038
:1005EC0000080140000C014010B504460E4B187871
:1005FC004FF47A73B3FBF0F30C4A1068B0FBF3F0D2
:10060C0000F0ECFC68B90F2C01D901200AE00022A3
:10061C0021464FF0FF3000F0A9FC054B1C60002078
:10062C0000E0012010BD00BF1000002018000020C9
:10063C001400002008B5074A136843F01003136038
:10064C00032000F081FC0020FFF7CEFFFFF70EFF28
:10065C00002008BD00200240034A1168034B1B78A0
:10066C000B441360704700BF7C000020100000207A
:10067C00014B1868704700BF7C00002038B5044659
:10068C00FFF7F6FF0546B4F1FF3F02D0044B1B7891
:10069C001C44FFF7EDFF401BA042FAD338BD00BF4E
:1006AC001000002082B0084B1B68084AA2FB0323F1
:1006BC005B0A00FB03F3019300BF019B5A1E0192DE
:1006CC00002BF9D102B0704718000020D34D6210F6
:1006DC00002800F0F18170B582B00446036813F075
:1006EC00010F2CD0994B5B6803F00C03042B1DD02D
:1006FC00964B5B6803F00C03082B12D06368B3F5C0
:10070C00803F41D0002B55D103F1804303F50433D6
:10071C001A6822F480321A601A6822F480221A6055
:10072C0037E08A4B5B6813F4803FE7D0874B1B683C
:10073C0013F4003F03D06368002B00F0BF812368E3
:10074C0013F0020F75D0814B5B6813F00C0F5FD068
:10075C007E4B5B6803F00C03082B54D02369002BF1
:10076C0000F08A807A4B01221A60FFF781FF054660
:10077C00764B1B6813F0020F75D1FFF779FF401B06
:10078C000228F5D903209EE1704A136843F48033A4
:10079C001360636843B3FFF76BFF05466B4B1B6835
:1007AC0013F4003FCBD1FFF763FF401B6428F5D94E
:1007BC00032088E1B3F5A02F09D0644B1A6822F40A
:1007CC0080321A601A6822F480221A60E1E703F181
:1007DC008043A3F53C331A6842F480221A601A68ED
:1007EC0042F480321A60D4E7FFF742FF0546574BBC
:1007FC001B6813F4003FA2D0FFF73AFF401B64289C
:10080C00F5D903205FE1514B5B6813F4803FA5D110
:10081C004E4B1B6813F0020F03D02369012B40F0E1
:10082C004F814A4A136823F0F803616943EAC10314
:10083C001360236813F0080F33D0A369002B5CD02E
:10084C00434B0122C3F88024FFF712FF05463F4BB0
:10085C005B6A13F0020F21D1FFF70AFF401B02283D
:10086C00F5D903202FE1394A136823F0F8036169A5
:10087C0043EAC1031360DCE7354B00221A60FFF733
:10088C00F7FE0546314B1B6813F0020FD1D0FFF772
:10089C00EFFE401B0228F5D9032014E10120FFF7DD
:1008AC0001FF236813F0040F00F09680274BDB69DF
:1008BC0013F0805F34D1254BDA6942F08052DA6153
:1008CC00DB6903F080530193019B0125214B1B68CD
:1008DC0013F4807F26D0E368012B3DD0002B53D13D
:1008EC0003F1804303F504331A6A22F001021A6201
:1008FC001A6A22F004021A6233E0154B0022C3F884
:10090C008024FFF7B5FE0546104B5B6A13F0020F0F
:10091C00C7D0FFF7ADFE401B0228F5D90320D2E06B
:10092C000025D3E70B4A136843F480731360FFF779
:10093C009FFE0646074B1B6813F4807FCBD1FFF755
:10094C0097FE801B6428F5D90320BCE00010024000
:10095C0000004242007000405F4A136A43F00103FA
:10096C001362E36833B3FFF783FE06465A4B1B6AE8
:10097C0013F0020F2FD1FFF77BFE801B41F288335F
:10098C009842F3D903209EE0052B09D0524B1A6AEA
:10099C0022F001021A621A6A22F004021A62E0E7DB
:1009AC004D4B1A6A42F004021A621A6A42F00102B2
:1009BC001A62D6E7FFF75CFE0646474B1B6A13F03C
:1009CC00020F08D0FFF754FE801B41F28833984287
:1009DC00F3D9032077E0E5B9E369002B72D03E4AE6
:1009EC00526802F00C02082A56D0022B17D03B4B4F
:1009FC0000221A66FFF73CFE0446374B1B6813F0C7
:100A0C00007F47D0FFF734FE001B0228F5D90320E6
:100A1C0059E0314AD36923F08053D361DCE72F4B83
:100A2C0000221A66FFF724FE05462B4B1B6813F0B9
:100A3C00007F06D0FFF71CFE401B0228F5D90320CF
:100A4C0041E0236AB3F5803F1AD023494B6823F465
:100A5C007413226A606A024313434B601F4B0122DA
:100A6C001A66FFF705FE04461B4B1B6813F0007F4C
:100A7C000ED1FFF7FDFD001B0228F5D9032022E063
:100A8C00154A536823F40033A1680B435360DCE729
:100A9C00002018E0002016E0012B16D00E4B5B68EE
:100AAC0003F48031226A914211D103F47013626A0B
:100ABC0093420ED1002006E001207047012002E095
:100ACC00012000E0002002B070BD0120FBE70120F6
:100ADC00F9E70120F7E700BF001002400000424296
:100AEC0086B0164B0FCB0DF1180C0CE90F0040F231
:100AFC000123ADF80430124B5B6803F00C02082A9A
:100B0C0002D0104806B07047C3F38342624412F817
:100B1C00100C13F4803F0CD0094B5B68C3F34043BB
:100B2C00634413F8143C074A02FB00F0B0FBF3F0EB
:100B3C00E8E7054B03FB00F0E4E700BF30140008C6
:100B4C000010024000127A0000093D00002800F05D
:100B5C00A08070B50D460446524B1B6803F007038A
:100B6C008B420BD24F4A136823F007030B431360DD
:100B7C00136803F007038B4240F08D80236813F059
:100B8C00020F17D013F0040F04D0474A536843F4F4
:100B9C00E0635360236813F0080F04D0424A536893
:100BAC0043F460535360404A536823F0F003A16848
:100BBC000B435360236813F0010F31D06368012B92
:100BCC0020D0022B25D0384A126812F0020F64D0C4
:100BDC0035494A6822F0030213434B60FFF748FD86
:100BEC000646314B5B6803F00C036268B3EB820F73
:100BFC0016D0FFF73DFD801B41F288339842F0D9A7
:100C0C00032045E0284A126812F4003FE0D101208D
:100C1C003EE0254A126812F0007FD9D1012037E05E
:100C2C00204B1B6803F00703AB420AD91D4A13681B
:100C3C0023F007032B431360136803F00703AB4245
:100C4C002DD1236813F0040F06D0174A536823F4F0
:100C5C00E063E1680B435360236813F0080F07D07F
:100C6C00114A536823F46053216943EAC10353606A
:100C7C00FFF736FF0C4B5B68C3F303130B4AD35CD3
:100C8C00D8400B4B18600B4B1868FFF7ADFC0020DD
:100C9C0070BD012070470120FAE70120F8E7012020
:100CAC00F6E700BF00200240001002404414000888
:100CBC001800002014000020014B1868704700BF7A
:100CCC001800002008B5FFF7F7FF044B5B68C3F36F
:100CDC000223034AD35CD84008BD00BF0010024079
:100CEC005414000808B5FFF7E7FF044B5B68C3F327
:100CFC00C223034AD35CD84008BD00BF0010024099
:100D0C005414000870B582B00024A446A6E0804DAF
:100D1C00AA4210D007D97F4DAA420CD005F58035D8
:100D2C00AA4208D013E0A5F58015AA4203D005F518
:100D3C007025AA4207D18A68002A58D0012A51D0BE
:100D4C004361082403E0A5F58015AA42F3D0BEF157
:100D5C00FF0F4ED80646BEF1FF0F4CD84FEA8C025F
:100D6C0033680F25954023EA050304FA02F2134376
:100D7C0033604B6813F0805F6ED0674B9A6942F01A
:100D8C0001029A619B6903F001030193019B4FEAF5
:100D9C009C02951C614B53F825600CF003039D00DD
:100DAC000F23AB4026EA03065D4B984229D003F58E
:100DBC008063984200F08E8003F58063984200F0C7
:100DCC008B8003F58063984219D004231AE0CC6819
:100DDC00BDE7CC680434BAE7CC680834B7E7CC6814
:100DEC000C34B4E703610824B1E70024AFE7042412
:100DFC00ADE7061DAFE7ACF108029200B0E70323A4
:100E0C0000E00023AB4033430232444D45F822301E
:100E1C004B6813F4803F61D0424A136843EA0E03D7
:100E2C0013604B6813F4003F5ED03E4A536843EAAC
:100E3C000E0353604B6813F4801F5BD0394A9368E0
:100E4C0043EA0E0393604B6813F4001F58D0354AE5
:100E5C00D36843EA0E03D3600CF1010C0A6832FA32
:100E6C000CF353D0012303FA0CF302EA030E33EA1A
:100E7C000202F1D14A68122A3FF649AF122A3FF614
:100E8C0066AF01A555F822F0430D0008DB0D0008F4
:100E9C00E50D0008F70D00085B0D00085B0D000860
:100EAC005B0D00085B0D00085B0D00085B0D000876
:100EBC005B0D00085B0D00085B0D00085B0D000866
:100ECC005B0D00085B0D00085B0D0008DF0D0008D2
:100EDC00EB0D0008012395E7022393E7114A1368F1
:100EEC0023EA0E0313609CE70E4A536823EA0E03B1
:100EFC0053609FE70B4A936823EA0E039360A2E7C3
:100F0C00084AD36823EA0E03D360A5E702B070BD8C
:100F1C0000002210000031100010024000000140BF
:100F2C0000080140000401400AB101617047090446
:100F3C0001617047C36801EA030221EA030141EA37
:100F4C000241016170470000074AD36823F4E06353
:100F5C001B041B0C000200F4E060034343F0BF636E
:100F6C0043F40033D360704700ED00E000B5194B3B
:100F7C00DB68C3F30223C3F1070CBCF1040F28BFD9
:100F8C004FF0040C03F1040EBEF1060F18D9033B0D
:100F9C004FF0FF3E0EFA0CFC21EA0C0199400EFAC0
:100FAC0003F322EA0303194300280BDB0901C9B23E
:100FBC0000F1604000F5614080F800135DF804FB1F
:100FCC000023E5E700F00F000901C9B2024B1954E8
:100FDC00F4E700BF00ED00E014ED00E00138B0F1E3
:100FEC00807F0BD24FF0E0235861054AF02182F844
:100FFC0023100020986107221A6170470120704766
:10100C0000ED00E010B504460268136923F4405368
:10101C00C1680B43136183680269134342691A4325
:10102C000168CB6823F4B05323F00C031343CB605B
:10103C000268536923F4407381690B43536102685E
:10104C00134B9A4220D0FFF73DFE024602EB820280
:10105C0002EB820263689B00B2FBF3F20D48A0FB2B
:10106C0002314909642303FB11231B013233A0FB1A
:10107C0003235B0903F0F00202EB011203F00F03F0
:10108C00216813448B6010BDFFF72CFE0246DDE790
:10109C00003801401F85EB512DE9F84305460F46FA
:1010AC0016469946DDF820802C68246837EA04033C
:1010BC000CBF4FF0010C4FF0000CB4451FD1B8F130
:1010CC00FF3FF1D0B8F1000F05D0FFF7D1FAA0EB3C
:1010DC0009004045E8D92A68D36823F4D073D3605B
:1010EC002A68536923F001035361202385F83D30AE
:1010FC0085F83E30002385F83C30032000E00020CA
:10110C00BDE8F88358B310B5044690F83D300BB3E6
:10111C00242384F83D302268D36823F40053D36031
:10112C002046FFF76FFF2268136923F49043136185
:10113C002268536923F02A0353612268D36843F46D
:10114C000053D36000202064202384F83D3084F8C1
:10115C003E3010BD80F83C30FFF7AAF9D8E70120EB
:10116C0070472DE9F04182B01E4690F83D30DBB25D
:10117C00202B54D104460D469046002953D0002A0A
:10118C0053D090F83C30012B51D0012380F83C30E7
:10119C0000230364212380F83D30FFF769FA0746EA
:1011AC00A4F82480A4F82680A368B3F5805F05D04A
:1011BC004FF00008002384F83C3012E0236913B18F
:1011CC004FF00008F6E7A8460025F3E738F8023B95
:1011DC002268C3F308035360E28C92B2013A92B2D4
:1011EC00E284E38C9BB273B100963B4600228021D3
:1011FC002046FFF751FFE0B9002DE7D015F8012B81
:10120C0023685A60E8E700963B46002240212046BE
:10121C00FFF742FF78B9202384F83D3000E002202C
:10122C0002B0BDE8F0810120FAE70120F8E70220C6
:10123C00F6E70320F4E70320F2E770470C480D496A
:10124C000D4A002302E0D458C4500433C4188C4215
:10125C00F9D30A4A0A4C002301E013600432A2427B
:10126C00FBD3FFF7EAFF00F00FF8FEF771FF7047B2
:10127C00000000201C0000208C1400081C00002022
:10128C0080000020FEE7000070B500260C4D0D4CD0
:10129C00641BA410A64209D100F09AF800260A4D4E
:1012AC000A4C641BA410A64205D170BD55F8043B32
:1012BC0098470136EEE755F8043B98470136F2E7BC
:1012CC00841400088414000884140008881400088E
:1012DC00931E222B10B50C4604D900231C460B7010
:1012EC00204610BD0A2A09D1002807DA2D230B70DD
:1012FC0001214042214400F029F8F1E70021F9E7EF
:10130C00FFF7E6BF03460244934200D1704703F84F
:10131C00011BF9E7034611F8012B03F8012B002AF6
:10132C00F9D17047034610B5013932B111F8014FAC
:10133C00013A03F8014B002CF7D100211A449342D7
:10134C0000D110BD03F8011BF9E70000F0B58BB01C
:10135C0005460B466E461D4C04F1200C37462068A2
:10136C006168083403C764453E46F7D1217920688B
:10137C003971911E222938604FF0000104D919707F
:10138C000B4618460BB0F0BD581E8446B5FBF2F761
:10139C0002FB17560DF1280E764416F8286C0C46F5
:1013AC000CF8016F2E46B2423D4601F10101EDD918
:1013BC0000225A541919A51AAA42E2DA10F8015F50
:1013CC000E780132067001F80159F4E75C1400083C
:1013DC00F8B500BFF8BC08BC9E467047F8B500BF16
:0813EC00F8BC08BC9E467047E6
:1013F4006865783A20257800535452494E4720496D
:101404005320544F4F204C41524745310D000000AA
:101414004E45474154495645204652455155454E3F
:101424004359204953205345540D00000203040539
:10143400060708090A0B0C0D0E0F1010000000001F
:101444000000000000000000010203040607080970
:1014540000000000010203043031323334353637E2
:1014640038396162636465666768696A6B6C6D6E5E
:101474006F707172737475767778797A00000000F2
:04148400310100082A
:041488000D0100084A
:10148C0000000000FC130008010000001414000808
:0C149C0001000000100000000024F4001B
:040000050800124994
:00000001FF
